{
  "contractName": "MerkleProof",
  "abi": [
    {
      "constant": true,
      "inputs": [
        {
          "name": "_proof",
          "type": "bytes"
        },
        {
          "name": "_root",
          "type": "bytes32"
        },
        {
          "name": "_leaf",
          "type": "bytes32"
        }
      ],
      "name": "verifyProof",
      "outputs": [
        {
          "name": "",
          "type": "bool"
        }
      ],
      "payable": false,
      "stateMutability": "pure",
      "type": "function"
    }
  ],
  "bytecode": "0x6060604052341561000f57600080fd5b6101cd8061001e6000396000f300606060405260043610610041576000357c0100000000000000000000000000000000000000000000000000000000900463ffffffff168063101f13e214610046575b600080fd5b6100b0600480803590602001908201803590602001908080601f0160208091040260200160405190810160405280939291908181526020018383808284378201915050505050509190803560001916906020019091908035600019169060200190919050506100ca565b604051808215151515815260200191505060405180910390f35b6000806000806000602088518115156100df57fe5b061415156100f05760009350610197565b849150602090505b8651811115156101895780870151925082600019168260001916101561014d5781836040518083600019166000191681526020018260001916600019168152602001925050506040518091039020915061017e565b8282604051808360001916600019168152602001826000191660001916815260200192505050604051809103902091505b6020810190506100f8565b856000191682600019161493505b50505093925050505600a165627a7a723058200a0cea8022b2ac11fba3a5059f2f2ad532e1fdb47bc43be61880eef785f43d9d0029",
  "source": "pragma solidity ^0.4.18;\n\n/*\n * @title MerkleProof\n * @dev Merkle proof verification\n * @note Based on https://github.com/ameensol/merkle-tree-solidity/blob/master/src/MerkleProof.sol\n */\nlibrary MerkleProof {\n  /*\n   * @dev Verifies a Merkle proof proving the existence of a leaf in a Merkle tree. Assumes that each pair of leaves\n   * and each pair of pre-images is sorted.\n   * @param _proof Merkle proof containing sibling hashes on the branch from the leaf to the root of the Merkle tree\n   * @param _root Merkle root\n   * @param _leaf Leaf of Merkle tree\n   */\n  function verifyProof(bytes _proof, bytes32 _root, bytes32 _leaf) public pure returns (bool) {\n    // Check if proof length is a multiple of 32\n    if (_proof.length % 32 != 0) return false;\n\n    bytes32 proofElement;\n    bytes32 computedHash = _leaf;\n\n    for (uint256 i = 32; i <= _proof.length; i += 32) {\n      assembly {\n        // Load the current element of the proof\n        proofElement := mload(add(_proof, i))\n      }\n\n      if (computedHash < proofElement) {\n        // Hash(current computed hash + current element of the proof)\n        computedHash = keccak256(computedHash, proofElement);\n      } else {\n        // Hash(current element of the proof + current computed hash)\n        computedHash = keccak256(proofElement, computedHash);\n      }\n    }\n\n    // Check if the computed hash (root) is equal to the provided root\n    return computedHash == _root;\n  }\n}\n",
  "sourcePath": "/home/mainSmartContract/contracts/zeppelin-solidity/contracts/MerkleProof.sol",
  "compiler": {
    "name": "solc",
    "version": "0.4.18+commit.9cf6e910.Emscripten.clang"
  },
  "schemaVersion": "1.0.1",
  "updatedAt": "2017-12-09T14:21:35.385Z"
}